:03000000020050AB
:1000500075B00FC28878007900D2AFD2A8BE01FD7A
:1000600002005020A025B2B430A0057900B2B4221D
:10007000B2B4B2B530A0057908B2B522B2B5B2B605
:1000800030A0057910B2B62279202220A125B2B481
:1000900030A1057901B2B422B2B4B2B530A105796C
:1000A00009B2B522B2B5B2B630A1057930B2B622E6
:1000B00079402220A225B2B430A2057902B2B4223E
:1000C000B2B4B2B530A205790AB2B522B2B5B2B6B1
:1000D00030A2057950B2B62279602220A325B2B4AD
:1000E00030A3057903B2B422B2B4B2B530A3057916
:1000F0000BB2B522B2B5B2B630A3057970B2B62252
:1001000079802220A425B2B430A4057904B2B422A7
:10011000B2B4B2B530A405790CB2B522B2B5B2B65C
:1001200030A4057990B2B62279A02220A525B2B4D8
:1001300030A5057905B2B422B2B4B2B530A50579BF
:100140000DB2B522B2B5B2B630A50579B0B2B622BD
:1001500079C02220A625B2B430A6057906B2B42211
:10016000B2B4B2B530A605790EB2B522B2B5B2B608
:1001700030A60579D0B2B62279E022B2B430A70514
:100180007907B2B422B2B4B2B530A705790FB2B5CF
:1001900022B2B5B2B630A70579F0B2B62279F12213
:0C000300C2B1C2AFC2A8120063C28932B1
:00000001FF
